{"abi":[{"type":"function","name":"clearAllTasks","inputs":[],"outputs":[],"stateMutability":"nonpayable"},{"type":"function","name":"completeTask","inputs":[{"name":"_id","type":"uint256","internalType":"uint256"}],"outputs":[],"stateMutability":"nonpayable"},{"type":"function","name":"createTodo","inputs":[{"name":"_name","type":"string","internalType":"string"},{"name":"_description","type":"string","internalType":"string"},{"name":"_deadline","type":"uint256","internalType":"uint256"}],"outputs":[],"stateMutability":"nonpayable"},{"type":"function","name":"deleteTask","inputs":[{"name":"_id","type":"uint256","internalType":"uint256"}],"outputs":[],"stateMutability":"nonpayable"},{"type":"function","name":"getActiveTasks","inputs":[],"outputs":[{"name":"","type":"tuple[]","internalType":"struct Core.Task[]","components":[{"name":"id","type":"uint256","internalType":"uint256"},{"name":"name","type":"string","internalType":"string"},{"name":"description","type":"string","internalType":"string"},{"name":"deadline","type":"uint256","internalType":"uint256"},{"name":"status","type":"uint8","internalType":"enum Core.Status"}]}],"stateMutability":"view"},{"type":"function","name":"getAllTasks","inputs":[],"outputs":[{"name":"","type":"tuple[]","internalType":"struct Core.Task[]","components":[{"name":"id","type":"uint256","internalType":"uint256"},{"name":"name","type":"string","internalType":"string"},{"name":"description","type":"string","internalType":"string"},{"name":"deadline","type":"uint256","internalType":"uint256"},{"name":"status","type":"uint8","internalType":"enum Core.Status"}]}],"stateMutability":"view"},{"type":"function","name":"getUserTask","inputs":[{"name":"_id","type":"uint256","internalType":"uint256"}],"outputs":[{"name":"","type":"tuple","internalType":"struct Core.Task","components":[{"name":"id","type":"uint256","internalType":"uint256"},{"name":"name","type":"string","internalType":"string"},{"name":"description","type":"string","internalType":"string"},{"name":"deadline","type":"uint256","internalType":"uint256"},{"name":"status","type":"uint8","internalType":"enum Core.Status"}]}],"stateMutability":"view"},{"type":"function","name":"updateTask","inputs":[{"name":"_name","type":"string","internalType":"string"},{"name":"_description","type":"string","internalType":"string"},{"name":"_deadline","type":"uint256","internalType":"uint256"},{"name":"_id","type":"uint256","internalType":"uint256"}],"outputs":[],"stateMutability":"nonpayable"},{"type":"event","name":"TaskCompleted","inputs":[{"name":"user","type":"address","indexed":true,"internalType":"address"},{"name":"id","type":"uint256","indexed":false,"internalType":"uint256"}],"anonymous":false},{"type":"event","name":"TaskDeleted","inputs":[{"name":"user","type":"address","indexed":true,"internalType":"address"},{"name":"id","type":"uint256","indexed":false,"internalType":"uint256"}],"anonymous":false},{"type":"event","name":"TaskUpdated","inputs":[{"name":"user","type":"address","indexed":true,"internalType":"address"},{"name":"id","type":"uint256","indexed":false,"internalType":"uint256"},{"name":"name","type":"string","indexed":false,"internalType":"string"},{"name":"description","type":"string","indexed":false,"internalType":"string"},{"name":"deadline","type":"uint256","indexed":false,"internalType":"uint256"}],"anonymous":false},{"type":"event","name":"TasksCleared","inputs":[{"name":"user","type":"address","indexed":true,"internalType":"address"},{"name":"clearedCount","type":"uint256","indexed":false,"internalType":"uint256"}],"anonymous":false},{"type":"event","name":"TasksCreated","inputs":[{"name":"user","type":"address","indexed":true,"internalType":"address"},{"name":"id","type":"uint256","indexed":false,"internalType":"uint256"},{"name":"name","type":"string","indexed":false,"internalType":"string"},{"name":"description","type":"string","indexed":false,"internalType":"string"},{"name":"deadline","type":"uint256","indexed":false,"internalType":"uint256"}],"anonymous":false},{"type":"error","name":"InvalidStringLength","inputs":[]},{"type":"error","name":"InvalidTaskId","inputs":[]},{"type":"error","name":"Invaliddeadline","inputs":[]},{"type":"error","name":"MaximumTasksReached","inputs":[]},{"type":"error","name":"NoTaskAdded","inputs":[]},{"type":"error","name":"NothingToUpdate","inputs":[]},{"type":"error","name":"TaskAlreadyCompleted","inputs":[]},{"type":"error","name":"TaskAlreadyExist","inputs":[]},{"type":"error","name":"TaskIsStillRunning","inputs":[]}],"bytecode":{"object":"0x6080604052348015600e575f5ffd5b506123698061001c5f395ff3fe608060405234801561000f575f5ffd5b5060043610610086575f3560e01c80636e89fc62116100595780636e89fc62146100fc578063779900b414610106578063cca9469e14610124578063e1e295581461015457610086565b80633c42ea3b1461008a578063560f3192146100a65780635aeb1c11146100c25780636127f246146100de575b5f5ffd5b6100a4600480360381019061009f91906119e0565b610170565b005b6100c060048036038101906100bb9190611a68565b6104cd565b005b6100dc60048036038101906100d79190611a93565b61067d565b005b6100e661090b565b6040516100f39190611d46565b60405180910390f35b610104610d3d565b005b61010e610ef5565b60405161011b9190611d46565b60405180910390f35b61013e60048036038101906101399190611a68565b611325565b60405161014b9190611de0565b60405180910390f35b61016e60048036038101906101699190611a68565b61157d565b005b5f6001805f3373ffffffffffffffffffffffffffffffffffffffff1673ffffffffffffffffffffffffffffffffffffffff1681526020019081526020015f20546101ba9190611e2d565b905060328111156101f7576040517f1deefdea00000000000000000000000000000000000000000000000000000000815260040160405180910390fd5b5f5f5f3373ffffffffffffffffffffffffffffffffffffffff1673ffffffffffffffffffffffffffffffffffffffff1681526020019081526020015f205f8381526020019081526020015f205f01541461027d576040517f96ab2ecd00000000000000000000000000000000000000000000000000000000815260040160405180910390fd5b6005845110156102b9576040517f8dc6ac0100000000000000000000000000000000000000000000000000000000815260040160405180910390fd5b600a835110156102f5576040517f8dc6ac0100000000000000000000000000000000000000000000000000000000815260040160405180910390fd5b5f82141580156103055750428211155b1561033c576040517fcd91d4e900000000000000000000000000000000000000000000000000000000815260040160405180910390fd5b6040518060a001604052808281526020018581526020018481526020018381526020016001600281111561037357610372611bc7565b5b8152505f5f3373ffffffffffffffffffffffffffffffffffffffff1673ffffffffffffffffffffffffffffffffffffffff1681526020019081526020015f205f8381526020019081526020015f205f820151815f015560208201518160010190816103de919061205d565b5060408201518160020190816103f4919061205d565b50606082015181600301556080820151816004015f6101000a81548160ff0219169083600281111561042957610428611bc7565b5b02179055509050508060015f3373ffffffffffffffffffffffffffffffffffffffff1673ffffffffffffffffffffffffffffffffffffffff1681526020019081526020015f20819055503373ffffffffffffffffffffffffffffffffffffffff167fd35d142f9cd646cf6c3df3717c76030036a10d841244cf9cad1fefe149da3ab7828686866040516104bf9493929190612183565b60405180910390a250505050565b5f5f5f3373ffffffffffffffffffffffffffffffffffffffff1673ffffffffffffffffffffffffffffffffffffffff1681526020019081526020015f205f8381526020019081526020015f2090505f815f0154148061056857508160015f3373ffffffffffffffffffffffffffffffffffffffff1673ffffffffffffffffffffffffffffffffffffffff1681526020019081526020015f2054105b1561059f576040517ffea707d900000000000000000000000000000000000000000000000000000000815260040160405180910390fd5b5f5f3373ffffffffffffffffffffffffffffffffffffffff1673ffffffffffffffffffffffffffffffffffffffff1681526020019081526020015f205f8381526020019081526020015f205f5f82015f9055600182015f61060091906117ca565b600282015f61060f91906117ca565b600382015f9055600482015f6101000a81549060ff021916905550503373ffffffffffffffffffffffffffffffffffffffff167fd1bc87501afcaa22b7f6481dac99ed45fbe02321873ca9b55c1f41b9d78b8fb38360405161067191906121d4565b60405180910390a25050565b5f60015f3373ffffffffffffffffffffffffffffffffffffffff1673ffffffffffffffffffffffffffffffffffffffff1681526020019081526020015f205490505f81036106f7576040517f0197dee500000000000000000000000000000000000000000000000000000000815260040160405180910390fd5b5f5f5f3373ffffffffffffffffffffffffffffffffffffffff1673ffffffffffffffffffffffffffffffffffffffff1681526020019081526020015f205f8481526020019081526020015f2090505f815f01541480610759575082815f015414155b15610790576040517ffea707d900000000000000000000000000000000000000000000000000000000815260040160405180910390fd5b6002808111156107a3576107a2611bc7565b5b816004015f9054906101000a900460ff1660028111156107c6576107c5611bc7565b5b036107fd576040517f7fba946d00000000000000000000000000000000000000000000000000000000815260040160405180910390fd5b5f865114801561080d57505f8551145b801561081857505f84145b1561084f576040517f2995fef100000000000000000000000000000000000000000000000000000000815260040160405180910390fd5b600586511061086b5785816001019081610869919061205d565b505b600a8551106108875784816002019081610885919061205d565b505b5f841415801561089657504284115b156108a5578381600301819055505b3373ffffffffffffffffffffffffffffffffffffffff167f439ba48601476f9c28a839d463ac4f0747e9d18d251d9e25a695adeda5c6669684836001018460020185600301546040516108fb949392919061226e565b60405180910390a2505050505050565b60605f60015f3373ffffffffffffffffffffffffffffffffffffffff1673ffffffffffffffffffffffffffffffffffffffff1681526020019081526020015f205490505f8103610987576040517f0197dee500000000000000000000000000000000000000000000000000000000815260040160405180910390fd5b5f5f90505f600190505b828111610a4057600160028111156109ac576109ab611bc7565b5b5f5f3373ffffffffffffffffffffffffffffffffffffffff1673ffffffffffffffffffffffffffffffffffffffff1681526020019081526020015f205f8381526020019081526020015f206004015f9054906101000a900460ff166002811115610a1957610a18611bc7565b5b03610a2d578180610a29906122bf565b9250505b8080610a38906122bf565b915050610991565b505f8167ffffffffffffffff811115610a5c57610a5b611889565b5b604051908082528060200260200182016040528015610a9557816020015b610a82611807565b815260200190600190039081610a7a5790505b5090505f5f90505f600190505b848111610d325760016002811115610abd57610abc611bc7565b5b5f5f3373ffffffffffffffffffffffffffffffffffffffff1673ffffffffffffffffffffffffffffffffffffffff1681526020019081526020015f205f8381526020019081526020015f206004015f9054906101000a900460ff166002811115610b2a57610b29611bc7565b5b03610d1f575f5f3373ffffffffffffffffffffffffffffffffffffffff1673ffffffffffffffffffffffffffffffffffffffff1681526020019081526020015f205f8281526020019081526020015f206040518060a00160405290815f8201548152602001600182018054610b9e90611e8d565b80601f0160208091040260200160405190810160405280929190818152602001828054610bca90611e8d565b8015610c155780601f10610bec57610100808354040283529160200191610c15565b820191905f5260205f20905b815481529060010190602001808311610bf857829003601f168201915b50505050508152602001600282018054610c2e90611e8d565b80601f0160208091040260200160405190810160405280929190818152602001828054610c5a90611e8d565b8015610ca55780601f10610c7c57610100808354040283529160200191610ca5565b820191905f5260205f20905b815481529060010190602001808311610c8857829003601f168201915b5050505050815260200160038201548152602001600482015f9054906101000a900460ff166002811115610cdc57610cdb611bc7565b5b6002811115610cee57610ced611bc7565b5b81525050838381518110610d0557610d04612306565b5b60200260200101819052508180610d1b906122bf565b9250505b8080610d2a906122bf565b915050610aa2565b508194505050505090565b5f60015f3373ffffffffffffffffffffffffffffffffffffffff1673ffffffffffffffffffffffffffffffffffffffff1681526020019081526020015f205490505f8103610db7576040517f0197dee500000000000000000000000000000000000000000000000000000000815260040160405180910390fd5b5f600190505b818111610e61575f5f3373ffffffffffffffffffffffffffffffffffffffff1673ffffffffffffffffffffffffffffffffffffffff1681526020019081526020015f205f8281526020019081526020015f205f5f82015f9055600182015f610e2591906117ca565b600282015f610e3491906117ca565b600382015f9055600482015f6101000a81549060ff0219169055505080610e5a906122bf565b9050610dbd565b505f60015f3373ffffffffffffffffffffffffffffffffffffffff1673ffffffffffffffffffffffffffffffffffffffff1681526020019081526020015f20819055503373ffffffffffffffffffffffffffffffffffffffff167f24d2d3f01304b5a616ed423c7567142cae90e3cfe358dffa6a0851dd7432b9c682604051610eea91906121d4565b60405180910390a250565b60605f60015f3373ffffffffffffffffffffffffffffffffffffffff1673ffffffffffffffffffffffffffffffffffffffff1681526020019081526020015f205490505f8103610f71576040517f0197dee500000000000000000000000000000000000000000000000000000000815260040160405180910390fd5b5f5f90505f600190505b828111611029575f6002811115610f9557610f94611bc7565b5b5f5f3373ffffffffffffffffffffffffffffffffffffffff1673ffffffffffffffffffffffffffffffffffffffff1681526020019081526020015f205f8381526020019081526020015f206004015f9054906101000a900460ff16600281111561100257611001611bc7565b5b14611016578180611012906122bf565b9250505b8080611021906122bf565b915050610f7b565b505f8167ffffffffffffffff81111561104557611044611889565b5b60405190808252806020026020018201604052801561107e57816020015b61106b611807565b8152602001906001900390816110635790505b5090505f5f90505f600190505b84811161131a575f60028111156110a5576110a4611bc7565b5b5f5f3373ffffffffffffffffffffffffffffffffffffffff1673ffffffffffffffffffffffffffffffffffffffff1681526020019081526020015f205f8381526020019081526020015f206004015f9054906101000a900460ff16600281111561111257611111611bc7565b5b14611307575f5f3373ffffffffffffffffffffffffffffffffffffffff1673ffffffffffffffffffffffffffffffffffffffff1681526020019081526020015f205f8281526020019081526020015f206040518060a00160405290815f820154815260200160018201805461118690611e8d565b80601f01602080910402602001604051908101604052809291908181526020018280546111b290611e8d565b80156111fd5780601f106111d4576101008083540402835291602001916111fd565b820191905f5260205f20905b8154815290600101906020018083116111e057829003601f168201915b5050505050815260200160028201805461121690611e8d565b80601f016020809104026020016040519081016040528092919081815260200182805461124290611e8d565b801561128d5780601f106112645761010080835404028352916020019161128d565b820191905f5260205f20905b81548152906001019060200180831161127057829003601f168201915b5050505050815260200160038201548152602001600482015f9054906101000a900460ff1660028111156112c4576112c3611bc7565b5b60028111156112d6576112d5611bc7565b5b815250508383815181106112ed576112ec612306565b5b60200260200101819052508180611303906122bf565b9250505b8080611312906122bf565b91505061108b565b508194505050505090565b61132d611807565b5f5f5f3373ffffffffffffffffffffffffffffffffffffffff1673ffffffffffffffffffffffffffffffffffffffff1681526020019081526020015f205f8481526020019081526020015f205f0154036113b3576040517ffea707d900000000000000000000000000000000000000000000000000000000815260040160405180910390fd5b5f5f3373ffffffffffffffffffffffffffffffffffffffff1673ffffffffffffffffffffffffffffffffffffffff1681526020019081526020015f205f8381526020019081526020015f206040518060a00160405290815f820154815260200160018201805461142290611e8d565b80601f016020809104026020016040519081016040528092919081815260200182805461144e90611e8d565b80156114995780601f1061147057610100808354040283529160200191611499565b820191905f5260205f20905b81548152906001019060200180831161147c57829003601f168201915b505050505081526020016002820180546114b290611e8d565b80601f01602080910402602001604051908101604052809291908181526020018280546114de90611e8d565b80156115295780601f1061150057610100808354040283529160200191611529565b820191905f5260205f20905b81548152906001019060200180831161150c57829003601f168201915b5050505050815260200160038201548152602001600482015f9054906101000a900460ff1660028111156115605761155f611bc7565b5b600281111561157257611571611bc7565b5b815250509050919050565b5f60015f3373ffffffffffffffffffffffffffffffffffffffff1673ffffffffffffffffffffffffffffffffffffffff1681526020019081526020015f205490505f81036115f7576040517f0197dee500000000000000000000000000000000000000000000000000000000815260040160405180910390fd5b5f5f5f3373ffffffffffffffffffffffffffffffffffffffff1673ffffffffffffffffffffffffffffffffffffffff1681526020019081526020015f205f8481526020019081526020015f2090505f815f01541480611659575082815f015414155b15611690576040517ffea707d900000000000000000000000000000000000000000000000000000000815260040160405180910390fd5b6002808111156116a3576116a2611bc7565b5b816004015f9054906101000a900460ff1660028111156116c6576116c5611bc7565b5b036116fd576040517f7fba946d00000000000000000000000000000000000000000000000000000000815260040160405180910390fd5b5f8160030154141580156117145750806003015442105b1561174b576040517f997c5e2a00000000000000000000000000000000000000000000000000000000815260040160405180910390fd5b6002816004015f6101000a81548160ff0219169083600281111561177257611771611bc7565b5b02179055503373ffffffffffffffffffffffffffffffffffffffff167ff684d89bb0f42287bf32838774e4b7f8a60c11804b3c6d1791fa55f306792643846040516117bd91906121d4565b60405180910390a2505050565b5080546117d690611e8d565b5f825580601f106117e75750611804565b601f0160209004905f5260205f20908101906118039190611845565b5b50565b6040518060a001604052805f815260200160608152602001606081526020015f81526020015f600281111561183f5761183e611bc7565b5b81525090565b5b8082111561185c575f815f905550600101611846565b5090565b5f604051905090565b5f5ffd5b5f5ffd5b5f5ffd5b5f5ffd5b5f601f19601f8301169050919050565b7f4e487b71000000000000000000000000000000000000000000000000000000005f52604160045260245ffd5b6118bf82611879565b810181811067ffffffffffffffff821117156118de576118dd611889565b5b80604052505050565b5f6118f0611860565b90506118fc82826118b6565b919050565b5f67ffffffffffffffff82111561191b5761191a611889565b5b61192482611879565b9050602081019050919050565b828183375f83830152505050565b5f61195161194c84611901565b6118e7565b90508281526020810184848401111561196d5761196c611875565b5b611978848285611931565b509392505050565b5f82601f83011261199457611993611871565b5b81356119a484826020860161193f565b91505092915050565b5f819050919050565b6119bf816119ad565b81146119c9575f5ffd5b50565b5f813590506119da816119b6565b92915050565b5f5f5f606084860312156119f7576119f6611869565b5b5f84013567ffffffffffffffff811115611a1457611a1361186d565b5b611a2086828701611980565b935050602084013567ffffffffffffffff811115611a4157611a4061186d565b5b611a4d86828701611980565b9250506040611a5e868287016119cc565b9150509250925092565b5f60208284031215611a7d57611a7c611869565b5b5f611a8a848285016119cc565b91505092915050565b5f5f5f5f60808587031215611aab57611aaa611869565b5b5f85013567ffffffffffffffff811115611ac857611ac761186d565b5b611ad487828801611980565b945050602085013567ffffffffffffffff811115611af557611af461186d565b5b611b0187828801611980565b9350506040611b12878288016119cc565b9250506060611b23878288016119cc565b91505092959194509250565b5f81519050919050565b5f82825260208201905092915050565b5f819050602082019050919050565b611b61816119ad565b82525050565b5f81519050919050565b5f82825260208201905092915050565b8281835e5f83830152505050565b5f611b9982611b67565b611ba38185611b71565b9350611bb3818560208601611b81565b611bbc81611879565b840191505092915050565b7f4e487b71000000000000000000000000000000000000000000000000000000005f52602160045260245ffd5b60038110611c0557611c04611bc7565b5b50565b5f819050611c1582611bf4565b919050565b5f611c2482611c08565b9050919050565b611c3481611c1a565b82525050565b5f60a083015f830151611c4f5f860182611b58565b5060208301518482036020860152611c678282611b8f565b91505060408301518482036040860152611c818282611b8f565b9150506060830151611c966060860182611b58565b506080830151611ca96080860182611c2b565b508091505092915050565b5f611cbf8383611c3a565b905092915050565b5f602082019050919050565b5f611cdd82611b2f565b611ce78185611b39565b935083602082028501611cf985611b49565b805f5b85811015611d345784840389528151611d158582611cb4565b9450611d2083611cc7565b925060208a01995050600181019050611cfc565b50829750879550505050505092915050565b5f6020820190508181035f830152611d5e8184611cd3565b905092915050565b5f60a083015f830151611d7b5f860182611b58565b5060208301518482036020860152611d938282611b8f565b91505060408301518482036040860152611dad8282611b8f565b9150506060830151611dc26060860182611b58565b506080830151611dd56080860182611c2b565b508091505092915050565b5f6020820190508181035f830152611df88184611d66565b905092915050565b7f4e487b71000000000000000000000000000000000000000000000000000000005f52601160045260245ffd5b5f611e37826119ad565b9150611e42836119ad565b9250828201905080821115611e5a57611e59611e00565b5b92915050565b7f4e487b71000000000000000000000000000000000000000000000000000000005f52602260045260245ffd5b5f6002820490506001821680611ea457607f821691505b602082108103611eb757611eb6611e60565b5b50919050565b5f819050815f5260205f209050919050565b5f6020601f8301049050919050565b5f82821b905092915050565b5f60088302611f197fffffffffffffffffffffffffffffffffffffffffffffffffffffffffffffffff82611ede565b611f238683611ede565b95508019841693508086168417925050509392505050565b5f819050919050565b5f611f5e611f59611f54846119ad565b611f3b565b6119ad565b9050919050565b5f819050919050565b611f7783611f44565b611f8b611f8382611f65565b848454611eea565b825550505050565b5f5f905090565b611fa2611f93565b611fad818484611f6e565b505050565b5b81811015611fd057611fc55f82611f9a565b600181019050611fb3565b5050565b601f82111561201557611fe681611ebd565b611fef84611ecf565b81016020851015611ffe578190505b61201261200a85611ecf565b830182611fb2565b50505b505050565b5f82821c905092915050565b5f6120355f198460080261201a565b1980831691505092915050565b5f61204d8383612026565b9150826002028217905092915050565b61206682611b67565b67ffffffffffffffff81111561207f5761207e611889565b5b6120898254611e8d565b612094828285611fd4565b5f60209050601f8311600181146120c5575f84156120b3578287015190505b6120bd8582612042565b865550612124565b601f1984166120d386611ebd565b5f5b828110156120fa578489015182556001820191506020850194506020810190506120d5565b868310156121175784890151612113601f891682612026565b8355505b6001600288020188555050505b505050505050565b612135816119ad565b82525050565b5f82825260208201905092915050565b5f61215582611b67565b61215f818561213b565b935061216f818560208601611b81565b61217881611879565b840191505092915050565b5f6080820190506121965f83018761212c565b81810360208301526121a8818661214b565b905081810360408301526121bc818561214b565b90506121cb606083018461212c565b95945050505050565b5f6020820190506121e75f83018461212c565b92915050565b5f81546121f981611e8d565b612203818661213b565b9450600182165f811461221d576001811461223357612265565b60ff198316865281151560200286019350612265565b61223c85611ebd565b5f5b8381101561225d5781548189015260018201915060208101905061223e565b808801955050505b50505092915050565b5f6080820190506122815f83018761212c565b818103602083015261229381866121ed565b905081810360408301526122a781856121ed565b90506122b6606083018461212c565b95945050505050565b5f6122c9826119ad565b91507fffffffffffffffffffffffffffffffffffffffffffffffffffffffffffffffff82036122fb576122fa611e00565b5b600182019050919050565b7f4e487b71000000000000000000000000000000000000000000000000000000005f52603260045260245ffdfea26469706673582212208ddcd6b43f32606e3090fb3fa106b57c9d10ffa4ccaa347a7922ae6abd05bf3f64736f6c634300081e0033","linkReferences":{}},"methodIdentifiers":{"clearAllTasks()":"6e89fc62","completeTask(uint256)":"e1e29558","createTodo(string,string,uint256)":"3c42ea3b","deleteTask(uint256)":"560f3192","getActiveTasks()":"6127f246","getAllTasks()":"779900b4","getUserTask(uint256)":"cca9469e","updateTask(string,string,uint256,uint256)":"5aeb1c11"},"id":21}